{
  "contractName": "Proof",
  "abi": [
    {
      "anonymous": false,
      "inputs": [
        {
          "indexed": false,
          "internalType": "bool",
          "name": "status",
          "type": "bool"
        },
        {
          "indexed": false,
          "internalType": "uint256",
          "name": "timestamp",
          "type": "uint256"
        },
        {
          "indexed": false,
          "internalType": "string",
          "name": "owner",
          "type": "string"
        },
        {
          "indexed": false,
          "internalType": "string",
          "name": "fileHash",
          "type": "string"
        }
      ],
      "name": "logFileAddedStatus",
      "type": "event"
    },
    {
      "inputs": [
        {
          "internalType": "string",
          "name": "owner",
          "type": "string"
        },
        {
          "internalType": "string",
          "name": "fileHash",
          "type": "string"
        }
      ],
      "name": "set",
      "outputs": [
        {
          "internalType": "bool",
          "name": "isUnique",
          "type": "bool"
        }
      ],
      "stateMutability": "nonpayable",
      "type": "function"
    },
    {
      "inputs": [
        {
          "internalType": "string",
          "name": "fileHash",
          "type": "string"
        }
      ],
      "name": "get",
      "outputs": [
        {
          "internalType": "uint256",
          "name": "timestamp",
          "type": "uint256"
        },
        {
          "internalType": "string",
          "name": "owner",
          "type": "string"
        }
      ],
      "stateMutability": "view",
      "type": "function"
    }
  ],
  "bytecode": "0x608060405234801561001057600080fd5b50610a85806100206000396000f3fe608060405234801561001057600080fd5b50600436106100365760003560e01c8063693ec85e1461003b578063e942b5161461006c575b600080fd5b61005560048036038101906100509190610434565b61009c565b604051610063929190610515565b60405180910390f35b610086600480360381019061008191906105a5565b610178565b6040516100939190610641565b60405180910390f35b600060606000836040516100b09190610698565b9081526020016040518091039020600001546000846040516100d29190610698565b90815260200160405180910390206001018080546100ef906106de565b80601f016020809104026020016040519081016040528092919081815260200182805461011b906106de565b80156101685780601f1061013d57610100808354040283529160200191610168565b820191906000526020600020905b81548152906001019060200180831161014b57829003601f168201915b5050505050905091509150915091565b6000806000848460405161018d929190610734565b9081526020016040518091039020600001540361028b57604051806040016040528042815260200186868080601f016020809104026020016040519081016040528093929190818152602001838380828437600081840152601f19601f820116905080830192505050505050508152506000848460405161020f929190610734565b908152602001604051809103902060008201518160000155602082015181600101908161023c91906108f9565b509050507f0d3bbc3c02da6ed436712ca1a0f626f1269df703a105f034e4637c7b10fb7ba56001428787878760405161027a969594939291906109f8565b60405180910390a1600190506102d2565b7f0d3bbc3c02da6ed436712ca1a0f626f1269df703a105f034e4637c7b10fb7ba5600042878787876040516102c5969594939291906109f8565b60405180910390a1600090505b949350505050565b6000604051905090565b600080fd5b600080fd5b600080fd5b600080fd5b6000601f19601f8301169050919050565b7f4e487b7100000000000000000000000000000000000000000000000000000000600052604160045260246000fd5b610341826102f8565b810181811067ffffffffffffffff821117156103605761035f610309565b5b80604052505050565b60006103736102da565b905061037f8282610338565b919050565b600067ffffffffffffffff82111561039f5761039e610309565b5b6103a8826102f8565b9050602081019050919050565b82818337600083830152505050565b60006103d76103d284610384565b610369565b9050828152602081018484840111156103f3576103f26102f3565b5b6103fe8482856103b5565b509392505050565b600082601f83011261041b5761041a6102ee565b5b813561042b8482602086016103c4565b91505092915050565b60006020828403121561044a576104496102e4565b5b600082013567ffffffffffffffff811115610468576104676102e9565b5b61047484828501610406565b91505092915050565b6000819050919050565b6104908161047d565b82525050565b600081519050919050565b600082825260208201905092915050565b60005b838110156104d05780820151818401526020810190506104b5565b60008484015250505050565b60006104e782610496565b6104f181856104a1565b93506105018185602086016104b2565b61050a816102f8565b840191505092915050565b600060408201905061052a6000830185610487565b818103602083015261053c81846104dc565b90509392505050565b600080fd5b600080fd5b60008083601f840112610565576105646102ee565b5b8235905067ffffffffffffffff81111561058257610581610545565b5b60208301915083600182028301111561059e5761059d61054a565b5b9250929050565b600080600080604085870312156105bf576105be6102e4565b5b600085013567ffffffffffffffff8111156105dd576105dc6102e9565b5b6105e98782880161054f565b9450945050602085013567ffffffffffffffff81111561060c5761060b6102e9565b5b6106188782880161054f565b925092505092959194509250565b60008115159050919050565b61063b81610626565b82525050565b60006020820190506106566000830184610632565b92915050565b600081905092915050565b600061067282610496565b61067c818561065c565b935061068c8185602086016104b2565b80840191505092915050565b60006106a48284610667565b915081905092915050565b7f4e487b7100000000000000000000000000000000000000000000000000000000600052602260045260246000fd5b600060028204905060018216806106f657607f821691505b602082108103610709576107086106af565b5b50919050565b600061071b838561065c565b93506107288385846103b5565b82840190509392505050565b600061074182848661070f565b91508190509392505050565b60008190508160005260206000209050919050565b60006020601f8301049050919050565b600082821b905092915050565b6000600883026107af7fffffffffffffffffffffffffffffffffffffffffffffffffffffffffffffffff82610772565b6107b98683610772565b95508019841693508086168417925050509392505050565b6000819050919050565b60006107f66107f16107ec8461047d565b6107d1565b61047d565b9050919050565b6000819050919050565b610810836107db565b61082461081c826107fd565b84845461077f565b825550505050565b600090565b61083961082c565b610844818484610807565b505050565b5b818110156108685761085d600082610831565b60018101905061084a565b5050565b601f8211156108ad5761087e8161074d565b61088784610762565b81016020851015610896578190505b6108aa6108a285610762565b830182610849565b50505b505050565b600082821c905092915050565b60006108d0600019846008026108b2565b1980831691505092915050565b60006108e983836108bf565b9150826002028217905092915050565b61090282610496565b67ffffffffffffffff81111561091b5761091a610309565b5b61092582546106de565b61093082828561086c565b600060209050601f8311600181146109635760008415610951578287015190505b61095b85826108dd565b8655506109c3565b601f1984166109718661074d565b60005b8281101561099957848901518255600182019150602085019450602081019050610974565b868310156109b657848901516109b2601f8916826108bf565b8355505b6001600288020188555050505b505050505050565b60006109d783856104a1565b93506109e48385846103b5565b6109ed836102f8565b840190509392505050565b6000608082019050610a0d6000830189610632565b610a1a6020830188610487565b8181036040830152610a2d8186886109cb565b90508181036060830152610a428184866109cb565b905097965050505050505056fea2646970667358221220a2e80ba4b8005c160862b9af58d4b70dd36cbeed1d6027d8078af3f34d30c20364736f6c63430008130033",
  "immutableReferences": {},
  "source": "// SPDX-License-Identifier: MIT\npragma solidity 0.8.19;\n\ncontract Proof {\n    struct FileDetails {\n        uint timestamp;\n        string owner;\n    }\n\n    mapping(string => FileDetails) files;\n\n    event logFileAddedStatus(\n        bool status,\n        uint timestamp,\n        string owner,\n        string fileHash\n    );\n\n    function set(\n        string calldata owner,\n        string calldata fileHash\n    ) public returns (bool isUnique) {\n        if (files[fileHash].timestamp == 0) {\n            files[fileHash] = FileDetails(block.timestamp, owner);\n            emit logFileAddedStatus(true, block.timestamp, owner, fileHash);\n            return true;\n        } else {\n            emit logFileAddedStatus(false, block.timestamp, owner, fileHash);\n            return false;\n        }\n    }\n\n    function get(\n        string memory fileHash\n    ) public view returns (uint timestamp, string memory owner) {\n        return (files[fileHash].timestamp, files[fileHash].owner);\n    }\n}\n",
  "sourcePath": "/home/kostayne/Documents/projects/turor/web3/truffle/contracts/proof.sol",
  "compiler": {
    "name": "solc",
    "version": "0.8.19+commit.7dd6d404.Emscripten.clang"
  },
  "schemaVersion": "3.4.16",
  "updatedAt": "2023-12-18T09:38:31.473Z",
  "devdoc": {
    "kind": "dev",
    "methods": {},
    "version": 1
  },
  "userdoc": {
    "kind": "user",
    "methods": {},
    "version": 1
  }
}